{
  "_format": "hh-sol-artifact-1",
  "contractName": "TradeEz",
  "sourceName": "contracts/tradeez.sol",
  "abi": [
    {
      "inputs": [],
      "stateMutability": "nonpayable",
      "type": "constructor"
    },
    {
      "anonymous": false,
      "inputs": [
        {
          "indexed": true,
          "internalType": "address",
          "name": "owner",
          "type": "address"
        },
        {
          "indexed": true,
          "internalType": "address",
          "name": "spender",
          "type": "address"
        },
        {
          "indexed": false,
          "internalType": "uint256",
          "name": "value",
          "type": "uint256"
        }
      ],
      "name": "Approval",
      "type": "event"
    },
    {
      "anonymous": false,
      "inputs": [
        {
          "indexed": true,
          "internalType": "address",
          "name": "from",
          "type": "address"
        },
        {
          "indexed": true,
          "internalType": "address",
          "name": "to",
          "type": "address"
        },
        {
          "indexed": false,
          "internalType": "uint256",
          "name": "value",
          "type": "uint256"
        }
      ],
      "name": "Transfer",
      "type": "event"
    },
    {
      "inputs": [
        {
          "internalType": "address",
          "name": "",
          "type": "address"
        }
      ],
      "name": "addressToAmountFund",
      "outputs": [
        {
          "internalType": "uint256",
          "name": "",
          "type": "uint256"
        }
      ],
      "stateMutability": "view",
      "type": "function"
    },
    {
      "inputs": [
        {
          "internalType": "address",
          "name": "owner",
          "type": "address"
        },
        {
          "internalType": "address",
          "name": "spender",
          "type": "address"
        }
      ],
      "name": "allowance",
      "outputs": [
        {
          "internalType": "uint256",
          "name": "",
          "type": "uint256"
        }
      ],
      "stateMutability": "view",
      "type": "function"
    },
    {
      "inputs": [
        {
          "internalType": "address",
          "name": "spender",
          "type": "address"
        },
        {
          "internalType": "uint256",
          "name": "amount",
          "type": "uint256"
        }
      ],
      "name": "approve",
      "outputs": [
        {
          "internalType": "bool",
          "name": "",
          "type": "bool"
        }
      ],
      "stateMutability": "nonpayable",
      "type": "function"
    },
    {
      "inputs": [
        {
          "internalType": "address",
          "name": "account",
          "type": "address"
        }
      ],
      "name": "balanceOf",
      "outputs": [
        {
          "internalType": "uint256",
          "name": "",
          "type": "uint256"
        }
      ],
      "stateMutability": "view",
      "type": "function"
    },
    {
      "inputs": [],
      "name": "blockReward",
      "outputs": [
        {
          "internalType": "uint256",
          "name": "",
          "type": "uint256"
        }
      ],
      "stateMutability": "view",
      "type": "function"
    },
    {
      "inputs": [
        {
          "internalType": "uint256",
          "name": "amount",
          "type": "uint256"
        }
      ],
      "name": "burn",
      "outputs": [],
      "stateMutability": "nonpayable",
      "type": "function"
    },
    {
      "inputs": [
        {
          "internalType": "address",
          "name": "account",
          "type": "address"
        },
        {
          "internalType": "uint256",
          "name": "amount",
          "type": "uint256"
        }
      ],
      "name": "burnFrom",
      "outputs": [],
      "stateMutability": "nonpayable",
      "type": "function"
    },
    {
      "inputs": [],
      "name": "cap",
      "outputs": [
        {
          "internalType": "uint256",
          "name": "",
          "type": "uint256"
        }
      ],
      "stateMutability": "view",
      "type": "function"
    },
    {
      "inputs": [],
      "name": "decimals",
      "outputs": [
        {
          "internalType": "uint8",
          "name": "",
          "type": "uint8"
        }
      ],
      "stateMutability": "view",
      "type": "function"
    },
    {
      "inputs": [
        {
          "internalType": "address",
          "name": "spender",
          "type": "address"
        },
        {
          "internalType": "uint256",
          "name": "subtractedValue",
          "type": "uint256"
        }
      ],
      "name": "decreaseAllowance",
      "outputs": [
        {
          "internalType": "bool",
          "name": "",
          "type": "bool"
        }
      ],
      "stateMutability": "nonpayable",
      "type": "function"
    },
    {
      "inputs": [
        {
          "internalType": "address",
          "name": "to",
          "type": "address"
        }
      ],
      "name": "fund",
      "outputs": [],
      "stateMutability": "payable",
      "type": "function"
    },
    {
      "inputs": [
        {
          "internalType": "address",
          "name": "spender",
          "type": "address"
        },
        {
          "internalType": "uint256",
          "name": "addedValue",
          "type": "uint256"
        }
      ],
      "name": "increaseAllowance",
      "outputs": [
        {
          "internalType": "bool",
          "name": "",
          "type": "bool"
        }
      ],
      "stateMutability": "nonpayable",
      "type": "function"
    },
    {
      "inputs": [],
      "name": "name",
      "outputs": [
        {
          "internalType": "string",
          "name": "",
          "type": "string"
        }
      ],
      "stateMutability": "view",
      "type": "function"
    },
    {
      "inputs": [],
      "name": "owner",
      "outputs": [
        {
          "internalType": "address payable",
          "name": "",
          "type": "address"
        }
      ],
      "stateMutability": "view",
      "type": "function"
    },
    {
      "inputs": [
        {
          "internalType": "uint256",
          "name": "reward",
          "type": "uint256"
        }
      ],
      "name": "setBlockReward",
      "outputs": [],
      "stateMutability": "nonpayable",
      "type": "function"
    },
    {
      "inputs": [],
      "name": "symbol",
      "outputs": [
        {
          "internalType": "string",
          "name": "",
          "type": "string"
        }
      ],
      "stateMutability": "view",
      "type": "function"
    },
    {
      "inputs": [],
      "name": "totalSupply",
      "outputs": [
        {
          "internalType": "uint256",
          "name": "",
          "type": "uint256"
        }
      ],
      "stateMutability": "view",
      "type": "function"
    },
    {
      "inputs": [
        {
          "internalType": "address",
          "name": "to",
          "type": "address"
        },
        {
          "internalType": "uint256",
          "name": "amount",
          "type": "uint256"
        }
      ],
      "name": "transfer",
      "outputs": [
        {
          "internalType": "bool",
          "name": "",
          "type": "bool"
        }
      ],
      "stateMutability": "nonpayable",
      "type": "function"
    },
    {
      "inputs": [
        {
          "internalType": "address",
          "name": "from",
          "type": "address"
        },
        {
          "internalType": "address",
          "name": "to",
          "type": "address"
        },
        {
          "internalType": "uint256",
          "name": "amount",
          "type": "uint256"
        }
      ],
      "name": "transferFrom",
      "outputs": [
        {
          "internalType": "bool",
          "name": "",
          "type": "bool"
        }
      ],
      "stateMutability": "nonpayable",
      "type": "function"
    }
  ],
  "bytecode": "0x60a06040526101f46008553480156200001757600080fd5b5062000028620001cd60201b60201c565b600a6200003691906200070b565b6008546200004591906200075c565b6040518060400160405280600781526020017f5472616465457a000000000000000000000000000000000000000000000000008152506040518060400160405280600381526020017f54455a00000000000000000000000000000000000000000000000000000000008152508160039081620000c2919062000a17565b508060049081620000d4919062000a17565b505050600081116200011d576040517f08c379a0000000000000000000000000000000000000000000000000000000008152600401620001149062000b5f565b60405180910390fd5b80608081815250505033600560006101000a81548173ffffffffffffffffffffffffffffffffffffffff021916908373ffffffffffffffffffffffffffffffffffffffff160217905550620001c7600560009054906101000a900473ffffffffffffffffffffffffffffffffffffffff166200019e620001cd60201b60201c565b600a620001ac91906200070b565b600854620001bb91906200075c565b620001d660201b60201c565b62000cce565b60006012905090565b620001e66200026760201b60201c565b81620001fc6200027160201b620005801760201c565b62000208919062000b81565b11156200024c576040517f08c379a0000000000000000000000000000000000000000000000000000000008152600401620002439062000c0c565b60405180910390fd5b6200026382826200027b60201b620009a21760201c565b5050565b6000608051905090565b6000600254905090565b6200028b6200026760201b60201c565b81620002a16200027160201b620005801760201c565b620002ad919062000b81565b1115620002f1576040517f08c379a0000000000000000000000000000000000000000000000000000000008152600401620002e89062000c0c565b60405180910390fd5b6200030882826200030c60201b62000a0c1760201c565b5050565b600073ffffffffffffffffffffffffffffffffffffffff168273ffffffffffffffffffffffffffffffffffffffff16036200037e576040517f08c379a0000000000000000000000000000000000000000000000000000000008152600401620003759062000c7e565b60405180910390fd5b62000392600083836200047960201b60201c565b8060026000828254620003a6919062000b81565b92505081905550806000808473ffffffffffffffffffffffffffffffffffffffff1673ffffffffffffffffffffffffffffffffffffffff168152602001908152602001600020600082825401925050819055508173ffffffffffffffffffffffffffffffffffffffff16600073ffffffffffffffffffffffffffffffffffffffff167fddf252ad1be2c89b69c2b068fc378daa952ba7f163c4a11628f55a4df523b3ef8360405162000459919062000cb1565b60405180910390a362000475600083836200055160201b60201c565b5050565b600073ffffffffffffffffffffffffffffffffffffffff168373ffffffffffffffffffffffffffffffffffffffff1614158015620004e357504173ffffffffffffffffffffffffffffffffffffffff168273ffffffffffffffffffffffffffffffffffffffff1614155b80156200051d5750600073ffffffffffffffffffffffffffffffffffffffff164173ffffffffffffffffffffffffffffffffffffffff1614155b156200053457620005336200055660201b60201c565b5b6200054c8383836200056c60201b62000b621760201c565b505050565b505050565b6200056a41600654620001d660201b60201c565b565b505050565b7f4e487b7100000000000000000000000000000000000000000000000000000000600052601160045260246000fd5b60008160011c9050919050565b6000808291508390505b6001851115620005ff57808604811115620005d757620005d662000571565b5b6001851615620005e75780820291505b8081029050620005f785620005a0565b9450620005b7565b94509492505050565b6000826200061a5760019050620006ed565b816200062a5760009050620006ed565b81600181146200064357600281146200064e5762000684565b6001915050620006ed565b60ff84111562000663576200066262000571565b5b8360020a9150848211156200067d576200067c62000571565b5b50620006ed565b5060208310610133831016604e8410600b8410161715620006be5782820a905083811115620006b857620006b762000571565b5b620006ed565b620006cd8484846001620005ad565b92509050818404811115620006e757620006e662000571565b5b81810290505b9392505050565b6000819050919050565b600060ff82169050919050565b60006200071882620006f4565b91506200072583620006fe565b9250620007547fffffffffffffffffffffffffffffffffffffffffffffffffffffffffffffffff848462000608565b905092915050565b60006200076982620006f4565b91506200077683620006f4565b92508282026200078681620006f4565b91508282048414831517620007a0576200079f62000571565b5b5092915050565b600081519050919050565b7f4e487b7100000000000000000000000000000000000000000000000000000000600052604160045260246000fd5b7f4e487b7100000000000000000000000000000000000000000000000000000000600052602260045260246000fd5b600060028204905060018216806200082957607f821691505b6020821081036200083f576200083e620007e1565b5b50919050565b60008190508160005260206000209050919050565b60006020601f8301049050919050565b600082821b905092915050565b600060088302620008a97fffffffffffffffffffffffffffffffffffffffffffffffffffffffffffffffff826200086a565b620008b586836200086a565b95508019841693508086168417925050509392505050565b6000819050919050565b6000620008f8620008f2620008ec84620006f4565b620008cd565b620006f4565b9050919050565b6000819050919050565b6200091483620008d7565b6200092c6200092382620008ff565b84845462000877565b825550505050565b600090565b6200094362000934565b6200095081848462000909565b505050565b5b8181101562000978576200096c60008262000939565b60018101905062000956565b5050565b601f821115620009c757620009918162000845565b6200099c846200085a565b81016020851015620009ac578190505b620009c4620009bb856200085a565b83018262000955565b50505b505050565b600082821c905092915050565b6000620009ec60001984600802620009cc565b1980831691505092915050565b600062000a078383620009d9565b9150826002028217905092915050565b62000a2282620007a7565b67ffffffffffffffff81111562000a3e5762000a3d620007b2565b5b62000a4a825462000810565b62000a578282856200097c565b600060209050601f83116001811462000a8f576000841562000a7a578287015190505b62000a868582620009f9565b86555062000af6565b601f19841662000a9f8662000845565b60005b8281101562000ac95784890151825560018201915060208501945060208101905062000aa2565b8683101562000ae9578489015162000ae5601f891682620009d9565b8355505b6001600288020188555050505b505050505050565b600082825260208201905092915050565b7f45524332304361707065643a2063617020697320300000000000000000000000600082015250565b600062000b4760158362000afe565b915062000b548262000b0f565b602082019050919050565b6000602082019050818103600083015262000b7a8162000b38565b9050919050565b600062000b8e82620006f4565b915062000b9b83620006f4565b925082820190508082111562000bb65762000bb562000571565b5b92915050565b7f45524332304361707065643a2063617020657863656564656400000000000000600082015250565b600062000bf460198362000afe565b915062000c018262000bbc565b602082019050919050565b6000602082019050818103600083015262000c278162000be5565b9050919050565b7f45524332303a206d696e7420746f20746865207a65726f206164647265737300600082015250565b600062000c66601f8362000afe565b915062000c738262000c2e565b602082019050919050565b6000602082019050818103600083015262000c998162000c57565b9050919050565b62000cab81620006f4565b82525050565b600060208201905062000cc8600083018462000ca0565b92915050565b608051611fae62000cea60003960006106da0152611fae6000f3fe6080604052600436106101145760003560e01c806339509351116100a05780638da5cb5b116100645780638da5cb5b146103b857806395d89b41146103e3578063a457c2d71461040e578063a9059cbb1461044b578063dd62ed3e1461048857610114565b806339509351146102af57806342966c68146102ec57806370a082311461031557806379cc6790146103525780638c04995f1461037b57610114565b80631a18e707116100e75780631a18e707146101d7578063230244081461020057806323b872dd1461021c578063313ce56714610259578063355274ea1461028457610114565b806306fdde0314610119578063095ea7b3146101445780630ac168a11461018157806318160ddd146101ac575b600080fd5b34801561012557600080fd5b5061012e6104c5565b60405161013b91906113d4565b60405180910390f35b34801561015057600080fd5b5061016b6004803603810190610166919061148f565b610557565b60405161017891906114ea565b60405180910390f35b34801561018d57600080fd5b5061019661057a565b6040516101a39190611514565b60405180910390f35b3480156101b857600080fd5b506101c1610580565b6040516101ce9190611514565b60405180910390f35b3480156101e357600080fd5b506101fe60048036038101906101f9919061152f565b61058a565b005b61021a6004803603810190610215919061155c565b610642565b005b34801561022857600080fd5b50610243600480360381019061023e9190611589565b61069e565b60405161025091906114ea565b60405180910390f35b34801561026557600080fd5b5061026e6106cd565b60405161027b91906115f8565b60405180910390f35b34801561029057600080fd5b506102996106d6565b6040516102a69190611514565b60405180910390f35b3480156102bb57600080fd5b506102d660048036038101906102d1919061148f565b6106fe565b6040516102e391906114ea565b60405180910390f35b3480156102f857600080fd5b50610313600480360381019061030e919061152f565b610735565b005b34801561032157600080fd5b5061033c6004803603810190610337919061155c565b610749565b6040516103499190611514565b60405180910390f35b34801561035e57600080fd5b506103796004803603810190610374919061148f565b610791565b005b34801561038757600080fd5b506103a2600480360381019061039d919061155c565b6107b1565b6040516103af9190611514565b60405180910390f35b3480156103c457600080fd5b506103cd6107c9565b6040516103da9190611634565b60405180910390f35b3480156103ef57600080fd5b506103f86107ef565b60405161040591906113d4565b60405180910390f35b34801561041a57600080fd5b506104356004803603810190610430919061148f565b610881565b60405161044291906114ea565b60405180910390f35b34801561045757600080fd5b50610472600480360381019061046d919061148f565b6108f8565b60405161047f91906114ea565b60405180910390f35b34801561049457600080fd5b506104af60048036038101906104aa919061164f565b61091b565b6040516104bc9190611514565b60405180910390f35b6060600380546104d4906116be565b80601f0160208091040260200160405190810160405280929190818152602001828054610500906116be565b801561054d5780601f106105225761010080835404028352916020019161054d565b820191906000526020600020905b81548152906001019060200180831161053057829003601f168201915b5050505050905090565b600080610562610b67565b905061056f818585610b6f565b600191505092915050565b60065481565b6000600254905090565b600560009054906101000a900473ffffffffffffffffffffffffffffffffffffffff1673ffffffffffffffffffffffffffffffffffffffff163373ffffffffffffffffffffffffffffffffffffffff161461061a576040517f08c379a000000000000000000000000000000000000000000000000000000000815260040161061190611761565b60405180910390fd5b6106226106cd565b600a61062e91906118e3565b81610639919061192e565b60068190555050565b33905034600760003373ffffffffffffffffffffffffffffffffffffffff1673ffffffffffffffffffffffffffffffffffffffff16815260200190815260200160002060008282546106949190611970565b9250508190555050565b6000806106a9610b67565b90506106b6858285610d38565b6106c1858585610dc4565b60019150509392505050565b60006012905090565b60007f0000000000000000000000000000000000000000000000000000000000000000905090565b600080610709610b67565b905061072a81858561071b858961091b565b6107259190611970565b610b6f565b600191505092915050565b610746610740610b67565b8261103a565b50565b60008060008373ffffffffffffffffffffffffffffffffffffffff1673ffffffffffffffffffffffffffffffffffffffff168152602001908152602001600020549050919050565b6107a38261079d610b67565b83610d38565b6107ad828261103a565b5050565b60076020528060005260406000206000915090505481565b600560009054906101000a900473ffffffffffffffffffffffffffffffffffffffff1681565b6060600480546107fe906116be565b80601f016020809104026020016040519081016040528092919081815260200182805461082a906116be565b80156108775780601f1061084c57610100808354040283529160200191610877565b820191906000526020600020905b81548152906001019060200180831161085a57829003601f168201915b5050505050905090565b60008061088c610b67565b9050600061089a828661091b565b9050838110156108df576040517f08c379a00000000000000000000000000000000000000000000000000000000081526004016108d690611a16565b60405180910390fd5b6108ec8286868403610b6f565b60019250505092915050565b600080610903610b67565b9050610910818585610dc4565b600191505092915050565b6000600160008473ffffffffffffffffffffffffffffffffffffffff1673ffffffffffffffffffffffffffffffffffffffff16815260200190815260200160002060008373ffffffffffffffffffffffffffffffffffffffff1673ffffffffffffffffffffffffffffffffffffffff16815260200190815260200160002054905092915050565b6109aa6106d6565b816109b3610580565b6109bd9190611970565b11156109fe576040517f08c379a00000000000000000000000000000000000000000000000000000000081526004016109f590611a82565b60405180910390fd5b610a088282610a0c565b5050565b600073ffffffffffffffffffffffffffffffffffffffff168273ffffffffffffffffffffffffffffffffffffffff1603610a7b576040517f08c379a0000000000000000000000000000000000000000000000000000000008152600401610a7290611aee565b60405180910390fd5b610a8760008383611207565b8060026000828254610a999190611970565b92505081905550806000808473ffffffffffffffffffffffffffffffffffffffff1673ffffffffffffffffffffffffffffffffffffffff168152602001908152602001600020600082825401925050819055508173ffffffffffffffffffffffffffffffffffffffff16600073ffffffffffffffffffffffffffffffffffffffff167fddf252ad1be2c89b69c2b068fc378daa952ba7f163c4a11628f55a4df523b3ef83604051610b4a9190611514565b60405180910390a3610b5e600083836112c7565b5050565b505050565b600033905090565b600073ffffffffffffffffffffffffffffffffffffffff168373ffffffffffffffffffffffffffffffffffffffff1603610bde576040517f08c379a0000000000000000000000000000000000000000000000000000000008152600401610bd590611b80565b60405180910390fd5b600073ffffffffffffffffffffffffffffffffffffffff168273ffffffffffffffffffffffffffffffffffffffff1603610c4d576040517f08c379a0000000000000000000000000000000000000000000000000000000008152600401610c4490611c12565b60405180910390fd5b80600160008573ffffffffffffffffffffffffffffffffffffffff1673ffffffffffffffffffffffffffffffffffffffff16815260200190815260200160002060008473ffffffffffffffffffffffffffffffffffffffff1673ffffffffffffffffffffffffffffffffffffffff168152602001908152602001600020819055508173ffffffffffffffffffffffffffffffffffffffff168373ffffffffffffffffffffffffffffffffffffffff167f8c5be1e5ebec7d5bd14f71427d1e84f3dd0314c0f7b2291e5b200ac8c7c3b92583604051610d2b9190611514565b60405180910390a3505050565b6000610d44848461091b565b90507fffffffffffffffffffffffffffffffffffffffffffffffffffffffffffffffff8114610dbe5781811015610db0576040517f08c379a0000000000000000000000000000000000000000000000000000000008152600401610da790611c7e565b60405180910390fd5b610dbd8484848403610b6f565b5b50505050565b600073ffffffffffffffffffffffffffffffffffffffff168373ffffffffffffffffffffffffffffffffffffffff1603610e33576040517f08c379a0000000000000000000000000000000000000000000000000000000008152600401610e2a90611d10565b60405180910390fd5b600073ffffffffffffffffffffffffffffffffffffffff168273ffffffffffffffffffffffffffffffffffffffff1603610ea2576040517f08c379a0000000000000000000000000000000000000000000000000000000008152600401610e9990611da2565b60405180910390fd5b610ead838383611207565b60008060008573ffffffffffffffffffffffffffffffffffffffff1673ffffffffffffffffffffffffffffffffffffffff16815260200190815260200160002054905081811015610f33576040517f08c379a0000000000000000000000000000000000000000000000000000000008152600401610f2a90611e34565b60405180910390fd5b8181036000808673ffffffffffffffffffffffffffffffffffffffff1673ffffffffffffffffffffffffffffffffffffffff16815260200190815260200160002081905550816000808573ffffffffffffffffffffffffffffffffffffffff1673ffffffffffffffffffffffffffffffffffffffff168152602001908152602001600020600082825401925050819055508273ffffffffffffffffffffffffffffffffffffffff168473ffffffffffffffffffffffffffffffffffffffff167fddf252ad1be2c89b69c2b068fc378daa952ba7f163c4a11628f55a4df523b3ef846040516110219190611514565b60405180910390a36110348484846112c7565b50505050565b600073ffffffffffffffffffffffffffffffffffffffff168273ffffffffffffffffffffffffffffffffffffffff16036110a9576040517f08c379a00000000000000000000000000000000000000000000000000000000081526004016110a090611ec6565b60405180910390fd5b6110b582600083611207565b60008060008473ffffffffffffffffffffffffffffffffffffffff1673ffffffffffffffffffffffffffffffffffffffff1681526020019081526020016000205490508181101561113b576040517f08c379a000000000000000000000000000000000000000000000000000000000815260040161113290611f58565b60405180910390fd5b8181036000808573ffffffffffffffffffffffffffffffffffffffff1673ffffffffffffffffffffffffffffffffffffffff1681526020019081526020016000208190555081600260008282540392505081905550600073ffffffffffffffffffffffffffffffffffffffff168373ffffffffffffffffffffffffffffffffffffffff167fddf252ad1be2c89b69c2b068fc378daa952ba7f163c4a11628f55a4df523b3ef846040516111ee9190611514565b60405180910390a3611202836000846112c7565b505050565b600073ffffffffffffffffffffffffffffffffffffffff168373ffffffffffffffffffffffffffffffffffffffff161415801561127057504173ffffffffffffffffffffffffffffffffffffffff168273ffffffffffffffffffffffffffffffffffffffff1614155b80156112a95750600073ffffffffffffffffffffffffffffffffffffffff164173ffffffffffffffffffffffffffffffffffffffff1614155b156112b7576112b66112cc565b5b6112c2838383610b62565b505050565b505050565b6112d8416006546112da565b565b6112e26106d6565b816112eb610580565b6112f59190611970565b1115611336576040517f08c379a000000000000000000000000000000000000000000000000000000000815260040161132d90611a82565b60405180910390fd5b61134082826109a2565b5050565b600081519050919050565b600082825260208201905092915050565b60005b8381101561137e578082015181840152602081019050611363565b60008484015250505050565b6000601f19601f8301169050919050565b60006113a682611344565b6113b0818561134f565b93506113c0818560208601611360565b6113c98161138a565b840191505092915050565b600060208201905081810360008301526113ee818461139b565b905092915050565b600080fd5b600073ffffffffffffffffffffffffffffffffffffffff82169050919050565b6000611426826113fb565b9050919050565b6114368161141b565b811461144157600080fd5b50565b6000813590506114538161142d565b92915050565b6000819050919050565b61146c81611459565b811461147757600080fd5b50565b60008135905061148981611463565b92915050565b600080604083850312156114a6576114a56113f6565b5b60006114b485828601611444565b92505060206114c58582860161147a565b9150509250929050565b60008115159050919050565b6114e4816114cf565b82525050565b60006020820190506114ff60008301846114db565b92915050565b61150e81611459565b82525050565b60006020820190506115296000830184611505565b92915050565b600060208284031215611545576115446113f6565b5b60006115538482850161147a565b91505092915050565b600060208284031215611572576115716113f6565b5b600061158084828501611444565b91505092915050565b6000806000606084860312156115a2576115a16113f6565b5b60006115b086828701611444565b93505060206115c186828701611444565b92505060406115d28682870161147a565b9150509250925092565b600060ff82169050919050565b6115f2816115dc565b82525050565b600060208201905061160d60008301846115e9565b92915050565b600061161e826113fb565b9050919050565b61162e81611613565b82525050565b60006020820190506116496000830184611625565b92915050565b60008060408385031215611666576116656113f6565b5b600061167485828601611444565b925050602061168585828601611444565b9150509250929050565b7f4e487b7100000000000000000000000000000000000000000000000000000000600052602260045260246000fd5b600060028204905060018216806116d657607f821691505b6020821081036116e9576116e861168f565b5b50919050565b7f4f6e6c7920746865206f776e65722063616e2063616c6c20746869732066756e60008201527f6374696f6e000000000000000000000000000000000000000000000000000000602082015250565b600061174b60258361134f565b9150611756826116ef565b604082019050919050565b6000602082019050818103600083015261177a8161173e565b9050919050565b7f4e487b7100000000000000000000000000000000000000000000000000000000600052601160045260246000fd5b60008160011c9050919050565b6000808291508390505b6001851115611807578086048111156117e3576117e2611781565b5b60018516156117f25780820291505b8081029050611800856117b0565b94506117c7565b94509492505050565b60008261182057600190506118dc565b8161182e57600090506118dc565b8160018114611844576002811461184e5761187d565b60019150506118dc565b60ff8411156118605761185f611781565b5b8360020a91508482111561187757611876611781565b5b506118dc565b5060208310610133831016604e8410600b84101617156118b25782820a9050838111156118ad576118ac611781565b5b6118dc565b6118bf84848460016117bd565b925090508184048111156118d6576118d5611781565b5b81810290505b9392505050565b60006118ee82611459565b91506118f9836115dc565b92506119267fffffffffffffffffffffffffffffffffffffffffffffffffffffffffffffffff8484611810565b905092915050565b600061193982611459565b915061194483611459565b925082820261195281611459565b9150828204841483151761196957611968611781565b5b5092915050565b600061197b82611459565b915061198683611459565b925082820190508082111561199e5761199d611781565b5b92915050565b7f45524332303a2064656372656173656420616c6c6f77616e63652062656c6f7760008201527f207a65726f000000000000000000000000000000000000000000000000000000602082015250565b6000611a0060258361134f565b9150611a0b826119a4565b604082019050919050565b60006020820190508181036000830152611a2f816119f3565b9050919050565b7f45524332304361707065643a2063617020657863656564656400000000000000600082015250565b6000611a6c60198361134f565b9150611a7782611a36565b602082019050919050565b60006020820190508181036000830152611a9b81611a5f565b9050919050565b7f45524332303a206d696e7420746f20746865207a65726f206164647265737300600082015250565b6000611ad8601f8361134f565b9150611ae382611aa2565b602082019050919050565b60006020820190508181036000830152611b0781611acb565b9050919050565b7f45524332303a20617070726f76652066726f6d20746865207a65726f2061646460008201527f7265737300000000000000000000000000000000000000000000000000000000602082015250565b6000611b6a60248361134f565b9150611b7582611b0e565b604082019050919050565b60006020820190508181036000830152611b9981611b5d565b9050919050565b7f45524332303a20617070726f766520746f20746865207a65726f20616464726560008201527f7373000000000000000000000000000000000000000000000000000000000000602082015250565b6000611bfc60228361134f565b9150611c0782611ba0565b604082019050919050565b60006020820190508181036000830152611c2b81611bef565b9050919050565b7f45524332303a20696e73756666696369656e7420616c6c6f77616e6365000000600082015250565b6000611c68601d8361134f565b9150611c7382611c32565b602082019050919050565b60006020820190508181036000830152611c9781611c5b565b9050919050565b7f45524332303a207472616e736665722066726f6d20746865207a65726f20616460008201527f6472657373000000000000000000000000000000000000000000000000000000602082015250565b6000611cfa60258361134f565b9150611d0582611c9e565b604082019050919050565b60006020820190508181036000830152611d2981611ced565b9050919050565b7f45524332303a207472616e7366657220746f20746865207a65726f206164647260008201527f6573730000000000000000000000000000000000000000000000000000000000602082015250565b6000611d8c60238361134f565b9150611d9782611d30565b604082019050919050565b60006020820190508181036000830152611dbb81611d7f565b9050919050565b7f45524332303a207472616e7366657220616d6f756e742065786365656473206260008201527f616c616e63650000000000000000000000000000000000000000000000000000602082015250565b6000611e1e60268361134f565b9150611e2982611dc2565b604082019050919050565b60006020820190508181036000830152611e4d81611e11565b9050919050565b7f45524332303a206275726e2066726f6d20746865207a65726f2061646472657360008201527f7300000000000000000000000000000000000000000000000000000000000000602082015250565b6000611eb060218361134f565b9150611ebb82611e54565b604082019050919050565b60006020820190508181036000830152611edf81611ea3565b9050919050565b7f45524332303a206275726e20616d6f756e7420657863656564732062616c616e60008201527f6365000000000000000000000000000000000000000000000000000000000000602082015250565b6000611f4260228361134f565b9150611f4d82611ee6565b604082019050919050565b60006020820190508181036000830152611f7181611f35565b905091905056fea26469706673582212200f9f66cd105c31fc3cf2576eccb528fdd09ec31a7d78c50c892d1f68a7cb887a64736f6c63430008120033",
  "linkReferences": {},
  "deployedLinkReferences": {}
}